{
  "_format": "hh-sol-artifact-1",
  "contractName": "WiseGuard",
  "sourceName": "contracts/WiseGuard.sol",
  "abi": [
    {
      "inputs": [],
      "stateMutability": "nonpayable",
      "type": "constructor"
    },
    {
      "inputs": [
        {
          "internalType": "address",
          "name": "sender",
          "type": "address"
        },
        {
          "internalType": "uint256",
          "name": "tokenId",
          "type": "uint256"
        },
        {
          "internalType": "address",
          "name": "owner",
          "type": "address"
        }
      ],
      "name": "ERC721IncorrectOwner",
      "type": "error"
    },
    {
      "inputs": [
        {
          "internalType": "address",
          "name": "operator",
          "type": "address"
        },
        {
          "internalType": "uint256",
          "name": "tokenId",
          "type": "uint256"
        }
      ],
      "name": "ERC721InsufficientApproval",
      "type": "error"
    },
    {
      "inputs": [
        {
          "internalType": "address",
          "name": "approver",
          "type": "address"
        }
      ],
      "name": "ERC721InvalidApprover",
      "type": "error"
    },
    {
      "inputs": [
        {
          "internalType": "address",
          "name": "operator",
          "type": "address"
        }
      ],
      "name": "ERC721InvalidOperator",
      "type": "error"
    },
    {
      "inputs": [
        {
          "internalType": "address",
          "name": "owner",
          "type": "address"
        }
      ],
      "name": "ERC721InvalidOwner",
      "type": "error"
    },
    {
      "inputs": [
        {
          "internalType": "address",
          "name": "receiver",
          "type": "address"
        }
      ],
      "name": "ERC721InvalidReceiver",
      "type": "error"
    },
    {
      "inputs": [
        {
          "internalType": "address",
          "name": "sender",
          "type": "address"
        }
      ],
      "name": "ERC721InvalidSender",
      "type": "error"
    },
    {
      "inputs": [
        {
          "internalType": "uint256",
          "name": "tokenId",
          "type": "uint256"
        }
      ],
      "name": "ERC721NonexistentToken",
      "type": "error"
    },
    {
      "inputs": [
        {
          "internalType": "address",
          "name": "owner",
          "type": "address"
        }
      ],
      "name": "OwnableInvalidOwner",
      "type": "error"
    },
    {
      "inputs": [
        {
          "internalType": "address",
          "name": "account",
          "type": "address"
        }
      ],
      "name": "OwnableUnauthorizedAccount",
      "type": "error"
    },
    {
      "anonymous": false,
      "inputs": [
        {
          "indexed": true,
          "internalType": "address",
          "name": "owner",
          "type": "address"
        },
        {
          "indexed": true,
          "internalType": "address",
          "name": "approved",
          "type": "address"
        },
        {
          "indexed": true,
          "internalType": "uint256",
          "name": "tokenId",
          "type": "uint256"
        }
      ],
      "name": "Approval",
      "type": "event"
    },
    {
      "anonymous": false,
      "inputs": [
        {
          "indexed": true,
          "internalType": "address",
          "name": "owner",
          "type": "address"
        },
        {
          "indexed": true,
          "internalType": "address",
          "name": "operator",
          "type": "address"
        },
        {
          "indexed": false,
          "internalType": "bool",
          "name": "approved",
          "type": "bool"
        }
      ],
      "name": "ApprovalForAll",
      "type": "event"
    },
    {
      "anonymous": false,
      "inputs": [
        {
          "indexed": false,
          "internalType": "uint256",
          "name": "_fromTokenId",
          "type": "uint256"
        },
        {
          "indexed": false,
          "internalType": "uint256",
          "name": "_toTokenId",
          "type": "uint256"
        }
      ],
      "name": "BatchMetadataUpdate",
      "type": "event"
    },
    {
      "anonymous": false,
      "inputs": [
        {
          "indexed": false,
          "internalType": "uint256",
          "name": "_tokenId",
          "type": "uint256"
        }
      ],
      "name": "MetadataUpdate",
      "type": "event"
    },
    {
      "anonymous": false,
      "inputs": [
        {
          "indexed": true,
          "internalType": "address",
          "name": "previousOwner",
          "type": "address"
        },
        {
          "indexed": true,
          "internalType": "address",
          "name": "newOwner",
          "type": "address"
        }
      ],
      "name": "OwnershipTransferred",
      "type": "event"
    },
    {
      "anonymous": false,
      "inputs": [
        {
          "indexed": true,
          "internalType": "address",
          "name": "from",
          "type": "address"
        },
        {
          "indexed": true,
          "internalType": "address",
          "name": "to",
          "type": "address"
        },
        {
          "indexed": true,
          "internalType": "uint256",
          "name": "tokenId",
          "type": "uint256"
        }
      ],
      "name": "Transfer",
      "type": "event"
    },
    {
      "inputs": [
        {
          "internalType": "address",
          "name": "to",
          "type": "address"
        },
        {
          "internalType": "uint256",
          "name": "tokenId",
          "type": "uint256"
        }
      ],
      "name": "approve",
      "outputs": [],
      "stateMutability": "nonpayable",
      "type": "function"
    },
    {
      "inputs": [
        {
          "internalType": "address",
          "name": "owner",
          "type": "address"
        }
      ],
      "name": "balanceOf",
      "outputs": [
        {
          "internalType": "uint256",
          "name": "",
          "type": "uint256"
        }
      ],
      "stateMutability": "view",
      "type": "function"
    },
    {
      "inputs": [
        {
          "internalType": "uint256",
          "name": "tokenId",
          "type": "uint256"
        }
      ],
      "name": "getApproved",
      "outputs": [
        {
          "internalType": "address",
          "name": "",
          "type": "address"
        }
      ],
      "stateMutability": "view",
      "type": "function"
    },
    {
      "inputs": [],
      "name": "getNextTokenId",
      "outputs": [
        {
          "internalType": "uint256",
          "name": "",
          "type": "uint256"
        }
      ],
      "stateMutability": "view",
      "type": "function"
    },
    {
      "inputs": [
        {
          "internalType": "address",
          "name": "owner",
          "type": "address"
        },
        {
          "internalType": "address",
          "name": "operator",
          "type": "address"
        }
      ],
      "name": "isApprovedForAll",
      "outputs": [
        {
          "internalType": "bool",
          "name": "",
          "type": "bool"
        }
      ],
      "stateMutability": "view",
      "type": "function"
    },
    {
      "inputs": [],
      "name": "name",
      "outputs": [
        {
          "internalType": "string",
          "name": "",
          "type": "string"
        }
      ],
      "stateMutability": "view",
      "type": "function"
    },
    {
      "inputs": [],
      "name": "owner",
      "outputs": [
        {
          "internalType": "address",
          "name": "",
          "type": "address"
        }
      ],
      "stateMutability": "view",
      "type": "function"
    },
    {
      "inputs": [
        {
          "internalType": "uint256",
          "name": "tokenId",
          "type": "uint256"
        }
      ],
      "name": "ownerOf",
      "outputs": [
        {
          "internalType": "address",
          "name": "",
          "type": "address"
        }
      ],
      "stateMutability": "view",
      "type": "function"
    },
    {
      "inputs": [],
      "name": "renounceOwnership",
      "outputs": [],
      "stateMutability": "nonpayable",
      "type": "function"
    },
    {
      "inputs": [],
      "name": "safeMint",
      "outputs": [],
      "stateMutability": "nonpayable",
      "type": "function"
    },
    {
      "inputs": [
        {
          "internalType": "address",
          "name": "from",
          "type": "address"
        },
        {
          "internalType": "address",
          "name": "to",
          "type": "address"
        },
        {
          "internalType": "uint256",
          "name": "tokenId",
          "type": "uint256"
        }
      ],
      "name": "safeTransferFrom",
      "outputs": [],
      "stateMutability": "nonpayable",
      "type": "function"
    },
    {
      "inputs": [
        {
          "internalType": "address",
          "name": "from",
          "type": "address"
        },
        {
          "internalType": "address",
          "name": "to",
          "type": "address"
        },
        {
          "internalType": "uint256",
          "name": "tokenId",
          "type": "uint256"
        },
        {
          "internalType": "bytes",
          "name": "data",
          "type": "bytes"
        }
      ],
      "name": "safeTransferFrom",
      "outputs": [],
      "stateMutability": "nonpayable",
      "type": "function"
    },
    {
      "inputs": [
        {
          "internalType": "address",
          "name": "operator",
          "type": "address"
        },
        {
          "internalType": "bool",
          "name": "approved",
          "type": "bool"
        }
      ],
      "name": "setApprovalForAll",
      "outputs": [],
      "stateMutability": "nonpayable",
      "type": "function"
    },
    {
      "inputs": [
        {
          "internalType": "bytes4",
          "name": "interfaceId",
          "type": "bytes4"
        }
      ],
      "name": "supportsInterface",
      "outputs": [
        {
          "internalType": "bool",
          "name": "",
          "type": "bool"
        }
      ],
      "stateMutability": "view",
      "type": "function"
    },
    {
      "inputs": [],
      "name": "symbol",
      "outputs": [
        {
          "internalType": "string",
          "name": "",
          "type": "string"
        }
      ],
      "stateMutability": "view",
      "type": "function"
    },
    {
      "inputs": [
        {
          "internalType": "uint256",
          "name": "tokenId",
          "type": "uint256"
        }
      ],
      "name": "tokenURI",
      "outputs": [
        {
          "internalType": "string",
          "name": "",
          "type": "string"
        }
      ],
      "stateMutability": "view",
      "type": "function"
    },
    {
      "inputs": [
        {
          "internalType": "address",
          "name": "from",
          "type": "address"
        },
        {
          "internalType": "address",
          "name": "to",
          "type": "address"
        },
        {
          "internalType": "uint256",
          "name": "tokenId",
          "type": "uint256"
        }
      ],
      "name": "transferFrom",
      "outputs": [],
      "stateMutability": "nonpayable",
      "type": "function"
    },
    {
      "inputs": [
        {
          "internalType": "address",
          "name": "newOwner",
          "type": "address"
        }
      ],
      "name": "transferOwnership",
      "outputs": [],
      "stateMutability": "nonpayable",
      "type": "function"
    }
  ],
  "bytecode": "0x608060405234801561001057600080fd5b50336040518060400160405280600981526020017f57697365477561726400000000000000000000000000000000000000000000008152506040518060400160405280600581526020017f574750554a000000000000000000000000000000000000000000000000000000815250816000908161008d9190610465565b50806001908161009d9190610465565b505050600073ffffffffffffffffffffffffffffffffffffffff168173ffffffffffffffffffffffffffffffffffffffff16036101125760006040517f1e4fbdf70000000000000000000000000000000000000000000000000000000081526004016101099190610578565b60405180910390fd5b6101218161014f60201b60201c565b50604051806060016040528060358152602001612bd660359139600990816101499190610465565b50610593565b6000600760009054906101000a900473ffffffffffffffffffffffffffffffffffffffff16905081600760006101000a81548173ffffffffffffffffffffffffffffffffffffffff021916908373ffffffffffffffffffffffffffffffffffffffff1602179055508173ffffffffffffffffffffffffffffffffffffffff168173ffffffffffffffffffffffffffffffffffffffff167f8be0079c531659141344cd1fd0a4f28419497f9722a3daafe3b4186f6b6457e060405160405180910390a35050565b600081519050919050565b7f4e487b7100000000000000000000000000000000000000000000000000000000600052604160045260246000fd5b7f4e487b7100000000000000000000000000000000000000000000000000000000600052602260045260246000fd5b6000600282049050600182168061029657607f821691505b6020821081036102a9576102a861024f565b5b50919050565b60008190508160005260206000209050919050565b60006020601f8301049050919050565b600082821b905092915050565b6000600883026103117fffffffffffffffffffffffffffffffffffffffffffffffffffffffffffffffff826102d4565b61031b86836102d4565b95508019841693508086168417925050509392505050565b6000819050919050565b6000819050919050565b600061036261035d61035884610333565b61033d565b610333565b9050919050565b6000819050919050565b61037c83610347565b61039061038882610369565b8484546102e1565b825550505050565b600090565b6103a5610398565b6103b0818484610373565b505050565b5b818110156103d4576103c960008261039d565b6001810190506103b6565b5050565b601f821115610419576103ea816102af565b6103f3846102c4565b81016020851015610402578190505b61041661040e856102c4565b8301826103b5565b50505b505050565b600082821c905092915050565b600061043c6000198460080261041e565b1980831691505092915050565b6000610455838361042b565b9150826002028217905092915050565b61046e82610215565b67ffffffffffffffff81111561048757610486610220565b5b610491825461027e565b61049c8282856103d8565b600060209050601f8311600181146104cf57600084156104bd578287015190505b6104c78582610449565b86555061052f565b601f1984166104dd866102af565b60005b82811015610505578489015182556001820191506020850194506020810190506104e0565b86831015610522578489015161051e601f89168261042b565b8355505b6001600288020188555050505b505050505050565b600073ffffffffffffffffffffffffffffffffffffffff82169050919050565b600061056282610537565b9050919050565b61057281610557565b82525050565b600060208201905061058d6000830184610569565b92915050565b612634806105a26000396000f3fe608060405234801561001057600080fd5b50600436106101165760003560e01c8063715018a6116100a2578063b88d4fde11610071578063b88d4fde146102b9578063c87b56dd146102d5578063caa0f92a14610305578063e985e9c514610323578063f2fde38b1461035357610116565b8063715018a6146102575780638da5cb5b1461026157806395d89b411461027f578063a22cb4651461029d57610116565b806323b872dd116100e957806323b872dd146101b557806342842e0e146101d15780636352211e146101ed5780636871ee401461021d57806370a082311461022757610116565b806301ffc9a71461011b57806306fdde031461014b578063081812fc14610169578063095ea7b314610199575b600080fd5b61013560048036038101906101309190611b89565b61036f565b6040516101429190611bd1565b60405180910390f35b610153610381565b6040516101609190611c7c565b60405180910390f35b610183600480360381019061017e9190611cd4565b610413565b6040516101909190611d42565b60405180910390f35b6101b360048036038101906101ae9190611d89565b61042f565b005b6101cf60048036038101906101ca9190611dc9565b610445565b005b6101eb60048036038101906101e69190611dc9565b610547565b005b61020760048036038101906102029190611cd4565b610567565b6040516102149190611d42565b60405180910390f35b610225610579565b005b610241600480360381019061023c9190611e1c565b61063d565b60405161024e9190611e58565b60405180910390f35b61025f6106f7565b005b61026961070b565b6040516102769190611d42565b60405180910390f35b610287610735565b6040516102949190611c7c565b60405180910390f35b6102b760048036038101906102b29190611e9f565b6107c7565b005b6102d360048036038101906102ce9190612014565b6107dd565b005b6102ef60048036038101906102ea9190611cd4565b610802565b6040516102fc9190611c7c565b60405180910390f35b61030d610814565b60405161031a9190611e58565b60405180910390f35b61033d60048036038101906103389190612097565b61081e565b60405161034a9190611bd1565b60405180910390f35b61036d60048036038101906103689190611e1c565b6108b2565b005b600061037a82610938565b9050919050565b60606000805461039090612106565b80601f01602080910402602001604051908101604052809291908181526020018280546103bc90612106565b80156104095780601f106103de57610100808354040283529160200191610409565b820191906000526020600020905b8154815290600101906020018083116103ec57829003601f168201915b5050505050905090565b600061041e82610999565b5061042882610a21565b9050919050565b610441828261043c610a5e565b610a66565b5050565b600073ffffffffffffffffffffffffffffffffffffffff168273ffffffffffffffffffffffffffffffffffffffff16036104b75760006040517f64a0ae920000000000000000000000000000000000000000000000000000000081526004016104ae9190611d42565b60405180910390fd5b60006104cb83836104c6610a5e565b610a78565b90508373ffffffffffffffffffffffffffffffffffffffff168173ffffffffffffffffffffffffffffffffffffffff1614610541578382826040517f64283d7b00000000000000000000000000000000000000000000000000000000815260040161053893929190612137565b60405180910390fd5b50505050565b610562838383604051806020016040528060008152506107dd565b505050565b600061057282610999565b9050919050565b610581610c92565b6000600860008154809291906105969061219d565b9190505590506105a63382610d19565b61063a81600980546105b790612106565b80601f01602080910402602001604051908101604052809291908181526020018280546105e390612106565b80156106305780601f1061060557610100808354040283529160200191610630565b820191906000526020600020905b81548152906001019060200180831161061357829003601f168201915b5050505050610d37565b50565b60008073ffffffffffffffffffffffffffffffffffffffff168273ffffffffffffffffffffffffffffffffffffffff16036106b05760006040517f89c62b640000000000000000000000000000000000000000000000000000000081526004016106a79190611d42565b60405180910390fd5b600360008373ffffffffffffffffffffffffffffffffffffffff1673ffffffffffffffffffffffffffffffffffffffff168152602001908152602001600020549050919050565b6106ff610c92565b6107096000610d93565b565b6000600760009054906101000a900473ffffffffffffffffffffffffffffffffffffffff16905090565b60606001805461074490612106565b80601f016020809104026020016040519081016040528092919081815260200182805461077090612106565b80156107bd5780601f10610792576101008083540402835291602001916107bd565b820191906000526020600020905b8154815290600101906020018083116107a057829003601f168201915b5050505050905090565b6107d96107d2610a5e565b8383610e59565b5050565b6107e8848484610445565b6107fc6107f3610a5e565b85858585610fc8565b50505050565b606061080d82611179565b9050919050565b6000600854905090565b6000600560008473ffffffffffffffffffffffffffffffffffffffff1673ffffffffffffffffffffffffffffffffffffffff16815260200190815260200160002060008373ffffffffffffffffffffffffffffffffffffffff1673ffffffffffffffffffffffffffffffffffffffff16815260200190815260200160002060009054906101000a900460ff16905092915050565b6108ba610c92565b600073ffffffffffffffffffffffffffffffffffffffff168173ffffffffffffffffffffffffffffffffffffffff160361092c5760006040517f1e4fbdf70000000000000000000000000000000000000000000000000000000081526004016109239190611d42565b60405180910390fd5b61093581610d93565b50565b6000634906490660e01b7bffffffffffffffffffffffffffffffffffffffffffffffffffffffff1916827bffffffffffffffffffffffffffffffffffffffffffffffffffffffff1916148061099257506109918261128c565b5b9050919050565b6000806109a58361136e565b9050600073ffffffffffffffffffffffffffffffffffffffff168173ffffffffffffffffffffffffffffffffffffffff1603610a1857826040517f7e273289000000000000000000000000000000000000000000000000000000008152600401610a0f9190611e58565b60405180910390fd5b80915050919050565b60006004600083815260200190815260200160002060009054906101000a900473ffffffffffffffffffffffffffffffffffffffff169050919050565b600033905090565b610a7383838360016113ab565b505050565b600080610a848461136e565b9050600073ffffffffffffffffffffffffffffffffffffffff168373ffffffffffffffffffffffffffffffffffffffff1614610ac657610ac5818486611570565b5b600073ffffffffffffffffffffffffffffffffffffffff168173ffffffffffffffffffffffffffffffffffffffff1614610b5757610b086000856000806113ab565b6001600360008373ffffffffffffffffffffffffffffffffffffffff1673ffffffffffffffffffffffffffffffffffffffff168152602001908152602001600020600082825403925050819055505b600073ffffffffffffffffffffffffffffffffffffffff168573ffffffffffffffffffffffffffffffffffffffff1614610bda576001600360008773ffffffffffffffffffffffffffffffffffffffff1673ffffffffffffffffffffffffffffffffffffffff168152602001908152602001600020600082825401925050819055505b846002600086815260200190815260200160002060006101000a81548173ffffffffffffffffffffffffffffffffffffffff021916908373ffffffffffffffffffffffffffffffffffffffff160217905550838573ffffffffffffffffffffffffffffffffffffffff168273ffffffffffffffffffffffffffffffffffffffff167fddf252ad1be2c89b69c2b068fc378daa952ba7f163c4a11628f55a4df523b3ef60405160405180910390a4809150509392505050565b610c9a610a5e565b73ffffffffffffffffffffffffffffffffffffffff16610cb861070b565b73ffffffffffffffffffffffffffffffffffffffff1614610d1757610cdb610a5e565b6040517f118cdaa7000000000000000000000000000000000000000000000000000000008152600401610d0e9190611d42565b60405180910390fd5b565b610d33828260405180602001604052806000815250611634565b5050565b80600660008481526020019081526020016000209081610d579190612391565b507ff8e1a15aba9398e019f0b49df1a4fde98ee17ae345cb5f6b5e2c27f5033e8ce782604051610d879190611e58565b60405180910390a15050565b6000600760009054906101000a900473ffffffffffffffffffffffffffffffffffffffff16905081600760006101000a81548173ffffffffffffffffffffffffffffffffffffffff021916908373ffffffffffffffffffffffffffffffffffffffff1602179055508173ffffffffffffffffffffffffffffffffffffffff168173ffffffffffffffffffffffffffffffffffffffff167f8be0079c531659141344cd1fd0a4f28419497f9722a3daafe3b4186f6b6457e060405160405180910390a35050565b600073ffffffffffffffffffffffffffffffffffffffff168273ffffffffffffffffffffffffffffffffffffffff1603610eca57816040517f5b08ba18000000000000000000000000000000000000000000000000000000008152600401610ec19190611d42565b60405180910390fd5b80600560008573ffffffffffffffffffffffffffffffffffffffff1673ffffffffffffffffffffffffffffffffffffffff16815260200190815260200160002060008473ffffffffffffffffffffffffffffffffffffffff1673ffffffffffffffffffffffffffffffffffffffff16815260200190815260200160002060006101000a81548160ff0219169083151502179055508173ffffffffffffffffffffffffffffffffffffffff168373ffffffffffffffffffffffffffffffffffffffff167f17307eab39ab6107e8899845ad3d59bd9653f200f220920489ca2b5937696c3183604051610fbb9190611bd1565b60405180910390a3505050565b60008373ffffffffffffffffffffffffffffffffffffffff163b1115611172578273ffffffffffffffffffffffffffffffffffffffff1663150b7a02868685856040518563ffffffff1660e01b815260040161102794939291906124b8565b6020604051808303816000875af192505050801561106357506040513d601f19601f820116820180604052508101906110609190612519565b60015b6110e7573d8060008114611093576040519150601f19603f3d011682016040523d82523d6000602084013e611098565b606091505b5060008151036110df57836040517f64a0ae920000000000000000000000000000000000000000000000000000000081526004016110d69190611d42565b60405180910390fd5b805181602001fd5b63150b7a0260e01b7bffffffffffffffffffffffffffffffffffffffffffffffffffffffff1916817bffffffffffffffffffffffffffffffffffffffffffffffffffffffff19161461117057836040517f64a0ae920000000000000000000000000000000000000000000000000000000081526004016111679190611d42565b60405180910390fd5b505b5050505050565b606061118482610999565b5060006006600084815260200190815260200160002080546111a590612106565b80601f01602080910402602001604051908101604052809291908181526020018280546111d190612106565b801561121e5780601f106111f35761010080835404028352916020019161121e565b820191906000526020600020905b81548152906001019060200180831161120157829003601f168201915b50505050509050600061122f611658565b90506000815103611244578192505050611287565b600082511115611279578082604051602001611261929190612582565b60405160208183030381529060405292505050611287565b6112828461166f565b925050505b919050565b60007f80ac58cd000000000000000000000000000000000000000000000000000000007bffffffffffffffffffffffffffffffffffffffffffffffffffffffff1916827bffffffffffffffffffffffffffffffffffffffffffffffffffffffff1916148061135757507f5b5e139f000000000000000000000000000000000000000000000000000000007bffffffffffffffffffffffffffffffffffffffffffffffffffffffff1916827bffffffffffffffffffffffffffffffffffffffffffffffffffffffff1916145b806113675750611366826116d8565b5b9050919050565b60006002600083815260200190815260200160002060009054906101000a900473ffffffffffffffffffffffffffffffffffffffff169050919050565b80806113e45750600073ffffffffffffffffffffffffffffffffffffffff168273ffffffffffffffffffffffffffffffffffffffff1614155b156115185760006113f484610999565b9050600073ffffffffffffffffffffffffffffffffffffffff168373ffffffffffffffffffffffffffffffffffffffff161415801561145f57508273ffffffffffffffffffffffffffffffffffffffff168173ffffffffffffffffffffffffffffffffffffffff1614155b80156114725750611470818461081e565b155b156114b457826040517fa9fbf51f0000000000000000000000000000000000000000000000000000000081526004016114ab9190611d42565b60405180910390fd5b811561151657838573ffffffffffffffffffffffffffffffffffffffff168273ffffffffffffffffffffffffffffffffffffffff167f8c5be1e5ebec7d5bd14f71427d1e84f3dd0314c0f7b2291e5b200ac8c7c3b92560405160405180910390a45b505b836004600085815260200190815260200160002060006101000a81548173ffffffffffffffffffffffffffffffffffffffff021916908373ffffffffffffffffffffffffffffffffffffffff16021790555050505050565b61157b838383611742565b61162f57600073ffffffffffffffffffffffffffffffffffffffff168373ffffffffffffffffffffffffffffffffffffffff16036115f057806040517f7e2732890000000000000000000000000000000000000000000000000000000081526004016115e79190611e58565b60405180910390fd5b81816040517f177e802f0000000000000000000000000000000000000000000000000000000081526004016116269291906125a6565b60405180910390fd5b505050565b61163e8383611803565b611653611649610a5e565b6000858585610fc8565b505050565b606060405180602001604052806000815250905090565b606061167a82610999565b506000611685611658565b905060008151116116a557604051806020016040528060008152506116d0565b806116af846118fc565b6040516020016116c0929190612582565b6040516020818303038152906040525b915050919050565b60007f01ffc9a7000000000000000000000000000000000000000000000000000000007bffffffffffffffffffffffffffffffffffffffffffffffffffffffff1916827bffffffffffffffffffffffffffffffffffffffffffffffffffffffff1916149050919050565b60008073ffffffffffffffffffffffffffffffffffffffff168373ffffffffffffffffffffffffffffffffffffffff16141580156117fa57508273ffffffffffffffffffffffffffffffffffffffff168473ffffffffffffffffffffffffffffffffffffffff1614806117bb57506117ba848461081e565b5b806117f957508273ffffffffffffffffffffffffffffffffffffffff166117e183610a21565b73ffffffffffffffffffffffffffffffffffffffff16145b5b90509392505050565b600073ffffffffffffffffffffffffffffffffffffffff168273ffffffffffffffffffffffffffffffffffffffff16036118755760006040517f64a0ae9200000000000000000000000000000000000000000000000000000000815260040161186c9190611d42565b60405180910390fd5b600061188383836000610a78565b9050600073ffffffffffffffffffffffffffffffffffffffff168173ffffffffffffffffffffffffffffffffffffffff16146118f75760006040517f73c6ac6e0000000000000000000000000000000000000000000000000000000081526004016118ee9190611d42565b60405180910390fd5b505050565b60606000600161190b846119ca565b01905060008167ffffffffffffffff81111561192a57611929611ee9565b5b6040519080825280601f01601f19166020018201604052801561195c5781602001600182028036833780820191505090505b509050600082602001820190505b6001156119bf578080600190039150507f3031323334353637383961626364656600000000000000000000000000000000600a86061a8153600a85816119b3576119b26125cf565b5b0494506000850361196a575b819350505050919050565b600080600090507a184f03e93ff9f4daa797ed6e38ed64bf6a1f0100000000000000008310611a28577a184f03e93ff9f4daa797ed6e38ed64bf6a1f0100000000000000008381611a1e57611a1d6125cf565b5b0492506040810190505b6d04ee2d6d415b85acef81000000008310611a65576d04ee2d6d415b85acef81000000008381611a5b57611a5a6125cf565b5b0492506020810190505b662386f26fc100008310611a9457662386f26fc100008381611a8a57611a896125cf565b5b0492506010810190505b6305f5e1008310611abd576305f5e1008381611ab357611ab26125cf565b5b0492506008810190505b6127108310611ae2576127108381611ad857611ad76125cf565b5b0492506004810190505b60648310611b055760648381611afb57611afa6125cf565b5b0492506002810190505b600a8310611b14576001810190505b80915050919050565b6000604051905090565b600080fd5b600080fd5b60007fffffffff0000000000000000000000000000000000000000000000000000000082169050919050565b611b6681611b31565b8114611b7157600080fd5b50565b600081359050611b8381611b5d565b92915050565b600060208284031215611b9f57611b9e611b27565b5b6000611bad84828501611b74565b91505092915050565b60008115159050919050565b611bcb81611bb6565b82525050565b6000602082019050611be66000830184611bc2565b92915050565b600081519050919050565b600082825260208201905092915050565b60005b83811015611c26578082015181840152602081019050611c0b565b60008484015250505050565b6000601f19601f8301169050919050565b6000611c4e82611bec565b611c588185611bf7565b9350611c68818560208601611c08565b611c7181611c32565b840191505092915050565b60006020820190508181036000830152611c968184611c43565b905092915050565b6000819050919050565b611cb181611c9e565b8114611cbc57600080fd5b50565b600081359050611cce81611ca8565b92915050565b600060208284031215611cea57611ce9611b27565b5b6000611cf884828501611cbf565b91505092915050565b600073ffffffffffffffffffffffffffffffffffffffff82169050919050565b6000611d2c82611d01565b9050919050565b611d3c81611d21565b82525050565b6000602082019050611d576000830184611d33565b92915050565b611d6681611d21565b8114611d7157600080fd5b50565b600081359050611d8381611d5d565b92915050565b60008060408385031215611da057611d9f611b27565b5b6000611dae85828601611d74565b9250506020611dbf85828601611cbf565b9150509250929050565b600080600060608486031215611de257611de1611b27565b5b6000611df086828701611d74565b9350506020611e0186828701611d74565b9250506040611e1286828701611cbf565b9150509250925092565b600060208284031215611e3257611e31611b27565b5b6000611e4084828501611d74565b91505092915050565b611e5281611c9e565b82525050565b6000602082019050611e6d6000830184611e49565b92915050565b611e7c81611bb6565b8114611e8757600080fd5b50565b600081359050611e9981611e73565b92915050565b60008060408385031215611eb657611eb5611b27565b5b6000611ec485828601611d74565b9250506020611ed585828601611e8a565b9150509250929050565b600080fd5b600080fd5b7f4e487b7100000000000000000000000000000000000000000000000000000000600052604160045260246000fd5b611f2182611c32565b810181811067ffffffffffffffff82111715611f4057611f3f611ee9565b5b80604052505050565b6000611f53611b1d565b9050611f5f8282611f18565b919050565b600067ffffffffffffffff821115611f7f57611f7e611ee9565b5b611f8882611c32565b9050602081019050919050565b82818337600083830152505050565b6000611fb7611fb284611f64565b611f49565b905082815260208101848484011115611fd357611fd2611ee4565b5b611fde848285611f95565b509392505050565b600082601f830112611ffb57611ffa611edf565b5b813561200b848260208601611fa4565b91505092915050565b6000806000806080858703121561202e5761202d611b27565b5b600061203c87828801611d74565b945050602061204d87828801611d74565b935050604061205e87828801611cbf565b925050606085013567ffffffffffffffff81111561207f5761207e611b2c565b5b61208b87828801611fe6565b91505092959194509250565b600080604083850312156120ae576120ad611b27565b5b60006120bc85828601611d74565b92505060206120cd85828601611d74565b9150509250929050565b7f4e487b7100000000000000000000000000000000000000000000000000000000600052602260045260246000fd5b6000600282049050600182168061211e57607f821691505b602082108103612131576121306120d7565b5b50919050565b600060608201905061214c6000830186611d33565b6121596020830185611e49565b6121666040830184611d33565b949350505050565b7f4e487b7100000000000000000000000000000000000000000000000000000000600052601160045260246000fd5b60006121a882611c9e565b91507fffffffffffffffffffffffffffffffffffffffffffffffffffffffffffffffff82036121da576121d961216e565b5b600182019050919050565b60008190508160005260206000209050919050565b60006020601f8301049050919050565b600082821b905092915050565b6000600883026122477fffffffffffffffffffffffffffffffffffffffffffffffffffffffffffffffff8261220a565b612251868361220a565b95508019841693508086168417925050509392505050565b6000819050919050565b600061228e61228961228484611c9e565b612269565b611c9e565b9050919050565b6000819050919050565b6122a883612273565b6122bc6122b482612295565b848454612217565b825550505050565b600090565b6122d16122c4565b6122dc81848461229f565b505050565b5b81811015612300576122f56000826122c9565b6001810190506122e2565b5050565b601f82111561234557612316816121e5565b61231f846121fa565b8101602085101561232e578190505b61234261233a856121fa565b8301826122e1565b50505b505050565b600082821c905092915050565b60006123686000198460080261234a565b1980831691505092915050565b60006123818383612357565b9150826002028217905092915050565b61239a82611bec565b67ffffffffffffffff8111156123b3576123b2611ee9565b5b6123bd8254612106565b6123c8828285612304565b600060209050601f8311600181146123fb57600084156123e9578287015190505b6123f38582612375565b86555061245b565b601f198416612409866121e5565b60005b828110156124315784890151825560018201915060208501945060208101905061240c565b8683101561244e578489015161244a601f891682612357565b8355505b6001600288020188555050505b505050505050565b600081519050919050565b600082825260208201905092915050565b600061248a82612463565b612494818561246e565b93506124a4818560208601611c08565b6124ad81611c32565b840191505092915050565b60006080820190506124cd6000830187611d33565b6124da6020830186611d33565b6124e76040830185611e49565b81810360608301526124f9818461247f565b905095945050505050565b60008151905061251381611b5d565b92915050565b60006020828403121561252f5761252e611b27565b5b600061253d84828501612504565b91505092915050565b600081905092915050565b600061255c82611bec565b6125668185612546565b9350612576818560208601611c08565b80840191505092915050565b600061258e8285612551565b915061259a8284612551565b91508190509392505050565b60006040820190506125bb6000830185611d33565b6125c86020830184611e49565b9392505050565b7f4e487b7100000000000000000000000000000000000000000000000000000000600052601260045260246000fdfea2646970667358221220f68dc216601f5b0d12b34fa1b53c1f3b2da73dcea14cd3a94b9c8c65e2456a2a64736f6c634300081b0033697066733a2f2f516d61635a4e775a556e747a473862556a725253727a3854476b3139317071383862664853764e4e793733797473",
  "linkReferences": {},
  "deployedLinkReferences": {}
}