{
  "_format": "hh-sol-artifact-1",
  "contractName": "WiseGuard",
  "sourceName": "contracts/WiseGuard.sol",
  "abi": [
    {
      "inputs": [],
      "stateMutability": "nonpayable",
      "type": "constructor"
    },
    {
      "inputs": [
        {
          "internalType": "address",
          "name": "sender",
          "type": "address"
        },
        {
          "internalType": "uint256",
          "name": "tokenId",
          "type": "uint256"
        },
        {
          "internalType": "address",
          "name": "owner",
          "type": "address"
        }
      ],
      "name": "ERC721IncorrectOwner",
      "type": "error"
    },
    {
      "inputs": [
        {
          "internalType": "address",
          "name": "operator",
          "type": "address"
        },
        {
          "internalType": "uint256",
          "name": "tokenId",
          "type": "uint256"
        }
      ],
      "name": "ERC721InsufficientApproval",
      "type": "error"
    },
    {
      "inputs": [
        {
          "internalType": "address",
          "name": "approver",
          "type": "address"
        }
      ],
      "name": "ERC721InvalidApprover",
      "type": "error"
    },
    {
      "inputs": [
        {
          "internalType": "address",
          "name": "operator",
          "type": "address"
        }
      ],
      "name": "ERC721InvalidOperator",
      "type": "error"
    },
    {
      "inputs": [
        {
          "internalType": "address",
          "name": "owner",
          "type": "address"
        }
      ],
      "name": "ERC721InvalidOwner",
      "type": "error"
    },
    {
      "inputs": [
        {
          "internalType": "address",
          "name": "receiver",
          "type": "address"
        }
      ],
      "name": "ERC721InvalidReceiver",
      "type": "error"
    },
    {
      "inputs": [
        {
          "internalType": "address",
          "name": "sender",
          "type": "address"
        }
      ],
      "name": "ERC721InvalidSender",
      "type": "error"
    },
    {
      "inputs": [
        {
          "internalType": "uint256",
          "name": "tokenId",
          "type": "uint256"
        }
      ],
      "name": "ERC721NonexistentToken",
      "type": "error"
    },
    {
      "inputs": [
        {
          "internalType": "address",
          "name": "owner",
          "type": "address"
        }
      ],
      "name": "OwnableInvalidOwner",
      "type": "error"
    },
    {
      "inputs": [
        {
          "internalType": "address",
          "name": "account",
          "type": "address"
        }
      ],
      "name": "OwnableUnauthorizedAccount",
      "type": "error"
    },
    {
      "anonymous": false,
      "inputs": [
        {
          "indexed": true,
          "internalType": "address",
          "name": "owner",
          "type": "address"
        },
        {
          "indexed": true,
          "internalType": "address",
          "name": "approved",
          "type": "address"
        },
        {
          "indexed": true,
          "internalType": "uint256",
          "name": "tokenId",
          "type": "uint256"
        }
      ],
      "name": "Approval",
      "type": "event"
    },
    {
      "anonymous": false,
      "inputs": [
        {
          "indexed": true,
          "internalType": "address",
          "name": "owner",
          "type": "address"
        },
        {
          "indexed": true,
          "internalType": "address",
          "name": "operator",
          "type": "address"
        },
        {
          "indexed": false,
          "internalType": "bool",
          "name": "approved",
          "type": "bool"
        }
      ],
      "name": "ApprovalForAll",
      "type": "event"
    },
    {
      "anonymous": false,
      "inputs": [
        {
          "indexed": false,
          "internalType": "uint256",
          "name": "_fromTokenId",
          "type": "uint256"
        },
        {
          "indexed": false,
          "internalType": "uint256",
          "name": "_toTokenId",
          "type": "uint256"
        }
      ],
      "name": "BatchMetadataUpdate",
      "type": "event"
    },
    {
      "anonymous": false,
      "inputs": [
        {
          "indexed": false,
          "internalType": "uint256",
          "name": "_tokenId",
          "type": "uint256"
        }
      ],
      "name": "MetadataUpdate",
      "type": "event"
    },
    {
      "anonymous": false,
      "inputs": [
        {
          "indexed": true,
          "internalType": "address",
          "name": "previousOwner",
          "type": "address"
        },
        {
          "indexed": true,
          "internalType": "address",
          "name": "newOwner",
          "type": "address"
        }
      ],
      "name": "OwnershipTransferred",
      "type": "event"
    },
    {
      "anonymous": false,
      "inputs": [
        {
          "indexed": true,
          "internalType": "address",
          "name": "from",
          "type": "address"
        },
        {
          "indexed": true,
          "internalType": "address",
          "name": "to",
          "type": "address"
        },
        {
          "indexed": true,
          "internalType": "uint256",
          "name": "tokenId",
          "type": "uint256"
        }
      ],
      "name": "Transfer",
      "type": "event"
    },
    {
      "inputs": [
        {
          "internalType": "address",
          "name": "to",
          "type": "address"
        },
        {
          "internalType": "uint256",
          "name": "tokenId",
          "type": "uint256"
        }
      ],
      "name": "approve",
      "outputs": [],
      "stateMutability": "nonpayable",
      "type": "function"
    },
    {
      "inputs": [
        {
          "internalType": "address",
          "name": "owner",
          "type": "address"
        }
      ],
      "name": "balanceOf",
      "outputs": [
        {
          "internalType": "uint256",
          "name": "",
          "type": "uint256"
        }
      ],
      "stateMutability": "view",
      "type": "function"
    },
    {
      "inputs": [
        {
          "internalType": "uint256",
          "name": "tokenId",
          "type": "uint256"
        }
      ],
      "name": "getApproved",
      "outputs": [
        {
          "internalType": "address",
          "name": "",
          "type": "address"
        }
      ],
      "stateMutability": "view",
      "type": "function"
    },
    {
      "inputs": [
        {
          "internalType": "address",
          "name": "owner",
          "type": "address"
        },
        {
          "internalType": "address",
          "name": "operator",
          "type": "address"
        }
      ],
      "name": "isApprovedForAll",
      "outputs": [
        {
          "internalType": "bool",
          "name": "",
          "type": "bool"
        }
      ],
      "stateMutability": "view",
      "type": "function"
    },
    {
      "inputs": [],
      "name": "name",
      "outputs": [
        {
          "internalType": "string",
          "name": "",
          "type": "string"
        }
      ],
      "stateMutability": "view",
      "type": "function"
    },
    {
      "inputs": [],
      "name": "owner",
      "outputs": [
        {
          "internalType": "address",
          "name": "",
          "type": "address"
        }
      ],
      "stateMutability": "view",
      "type": "function"
    },
    {
      "inputs": [
        {
          "internalType": "uint256",
          "name": "tokenId",
          "type": "uint256"
        }
      ],
      "name": "ownerOf",
      "outputs": [
        {
          "internalType": "address",
          "name": "",
          "type": "address"
        }
      ],
      "stateMutability": "view",
      "type": "function"
    },
    {
      "inputs": [],
      "name": "renounceOwnership",
      "outputs": [],
      "stateMutability": "nonpayable",
      "type": "function"
    },
    {
      "inputs": [],
      "name": "safeMint",
      "outputs": [],
      "stateMutability": "nonpayable",
      "type": "function"
    },
    {
      "inputs": [
        {
          "internalType": "address",
          "name": "from",
          "type": "address"
        },
        {
          "internalType": "address",
          "name": "to",
          "type": "address"
        },
        {
          "internalType": "uint256",
          "name": "tokenId",
          "type": "uint256"
        }
      ],
      "name": "safeTransferFrom",
      "outputs": [],
      "stateMutability": "nonpayable",
      "type": "function"
    },
    {
      "inputs": [
        {
          "internalType": "address",
          "name": "from",
          "type": "address"
        },
        {
          "internalType": "address",
          "name": "to",
          "type": "address"
        },
        {
          "internalType": "uint256",
          "name": "tokenId",
          "type": "uint256"
        },
        {
          "internalType": "bytes",
          "name": "data",
          "type": "bytes"
        }
      ],
      "name": "safeTransferFrom",
      "outputs": [],
      "stateMutability": "nonpayable",
      "type": "function"
    },
    {
      "inputs": [
        {
          "internalType": "address",
          "name": "operator",
          "type": "address"
        },
        {
          "internalType": "bool",
          "name": "approved",
          "type": "bool"
        }
      ],
      "name": "setApprovalForAll",
      "outputs": [],
      "stateMutability": "nonpayable",
      "type": "function"
    },
    {
      "inputs": [
        {
          "internalType": "bytes4",
          "name": "interfaceId",
          "type": "bytes4"
        }
      ],
      "name": "supportsInterface",
      "outputs": [
        {
          "internalType": "bool",
          "name": "",
          "type": "bool"
        }
      ],
      "stateMutability": "view",
      "type": "function"
    },
    {
      "inputs": [],
      "name": "symbol",
      "outputs": [
        {
          "internalType": "string",
          "name": "",
          "type": "string"
        }
      ],
      "stateMutability": "view",
      "type": "function"
    },
    {
      "inputs": [
        {
          "internalType": "uint256",
          "name": "tokenId",
          "type": "uint256"
        }
      ],
      "name": "tokenURI",
      "outputs": [
        {
          "internalType": "string",
          "name": "",
          "type": "string"
        }
      ],
      "stateMutability": "view",
      "type": "function"
    },
    {
      "inputs": [
        {
          "internalType": "address",
          "name": "from",
          "type": "address"
        },
        {
          "internalType": "address",
          "name": "to",
          "type": "address"
        },
        {
          "internalType": "uint256",
          "name": "tokenId",
          "type": "uint256"
        }
      ],
      "name": "transferFrom",
      "outputs": [],
      "stateMutability": "nonpayable",
      "type": "function"
    },
    {
      "inputs": [
        {
          "internalType": "address",
          "name": "newOwner",
          "type": "address"
        }
      ],
      "name": "transferOwnership",
      "outputs": [],
      "stateMutability": "nonpayable",
      "type": "function"
    }
  ],
  "bytecode": "0x608060405234801561001057600080fd5b50336040518060400160405280600981526020017f57697365477561726400000000000000000000000000000000000000000000008152506040518060400160405280600581526020017f574750554a000000000000000000000000000000000000000000000000000000815250816000908161008d9190610465565b50806001908161009d9190610465565b505050600073ffffffffffffffffffffffffffffffffffffffff168173ffffffffffffffffffffffffffffffffffffffff16036101125760006040517f1e4fbdf70000000000000000000000000000000000000000000000000000000081526004016101099190610578565b60405180910390fd5b6101218161014f60201b60201c565b50604051806060016040528060358152602001612ba360359139600990816101499190610465565b50610593565b6000600760009054906101000a900473ffffffffffffffffffffffffffffffffffffffff16905081600760006101000a81548173ffffffffffffffffffffffffffffffffffffffff021916908373ffffffffffffffffffffffffffffffffffffffff1602179055508173ffffffffffffffffffffffffffffffffffffffff168173ffffffffffffffffffffffffffffffffffffffff167f8be0079c531659141344cd1fd0a4f28419497f9722a3daafe3b4186f6b6457e060405160405180910390a35050565b600081519050919050565b7f4e487b7100000000000000000000000000000000000000000000000000000000600052604160045260246000fd5b7f4e487b7100000000000000000000000000000000000000000000000000000000600052602260045260246000fd5b6000600282049050600182168061029657607f821691505b6020821081036102a9576102a861024f565b5b50919050565b60008190508160005260206000209050919050565b60006020601f8301049050919050565b600082821b905092915050565b6000600883026103117fffffffffffffffffffffffffffffffffffffffffffffffffffffffffffffffff826102d4565b61031b86836102d4565b95508019841693508086168417925050509392505050565b6000819050919050565b6000819050919050565b600061036261035d61035884610333565b61033d565b610333565b9050919050565b6000819050919050565b61037c83610347565b61039061038882610369565b8484546102e1565b825550505050565b600090565b6103a5610398565b6103b0818484610373565b505050565b5b818110156103d4576103c960008261039d565b6001810190506103b6565b5050565b601f821115610419576103ea816102af565b6103f3846102c4565b81016020851015610402578190505b61041661040e856102c4565b8301826103b5565b50505b505050565b600082821c905092915050565b600061043c6000198460080261041e565b1980831691505092915050565b6000610455838361042b565b9150826002028217905092915050565b61046e82610215565b67ffffffffffffffff81111561048757610486610220565b5b610491825461027e565b61049c8282856103d8565b600060209050601f8311600181146104cf57600084156104bd578287015190505b6104c78582610449565b86555061052f565b601f1984166104dd866102af565b60005b82811015610505578489015182556001820191506020850194506020810190506104e0565b86831015610522578489015161051e601f89168261042b565b8355505b6001600288020188555050505b505050505050565b600073ffffffffffffffffffffffffffffffffffffffff82169050919050565b600061056282610537565b9050919050565b61057281610557565b82525050565b600060208201905061058d6000830184610569565b92915050565b612601806105a26000396000f3fe608060405234801561001057600080fd5b506004361061010b5760003560e01c806370a08231116100a2578063a22cb46511610071578063a22cb46514610292578063b88d4fde146102ae578063c87b56dd146102ca578063e985e9c5146102fa578063f2fde38b1461032a5761010b565b806370a082311461021c578063715018a61461024c5780638da5cb5b1461025657806395d89b41146102745761010b565b806323b872dd116100de57806323b872dd146101aa57806342842e0e146101c65780636352211e146101e25780636871ee40146102125761010b565b806301ffc9a71461011057806306fdde0314610140578063081812fc1461015e578063095ea7b31461018e575b600080fd5b61012a60048036038101906101259190611b56565b610346565b6040516101379190611b9e565b60405180910390f35b610148610358565b6040516101559190611c49565b60405180910390f35b61017860048036038101906101739190611ca1565b6103ea565b6040516101859190611d0f565b60405180910390f35b6101a860048036038101906101a39190611d56565b610406565b005b6101c460048036038101906101bf9190611d96565b61041c565b005b6101e060048036038101906101db9190611d96565b61051e565b005b6101fc60048036038101906101f79190611ca1565b61053e565b6040516102099190611d0f565b60405180910390f35b61021a610550565b005b61023660048036038101906102319190611de9565b610614565b6040516102439190611e25565b60405180910390f35b6102546106ce565b005b61025e6106e2565b60405161026b9190611d0f565b60405180910390f35b61027c61070c565b6040516102899190611c49565b60405180910390f35b6102ac60048036038101906102a79190611e6c565b61079e565b005b6102c860048036038101906102c39190611fe1565b6107b4565b005b6102e460048036038101906102df9190611ca1565b6107d9565b6040516102f19190611c49565b60405180910390f35b610314600480360381019061030f9190612064565b6107eb565b6040516103219190611b9e565b60405180910390f35b610344600480360381019061033f9190611de9565b61087f565b005b600061035182610905565b9050919050565b606060008054610367906120d3565b80601f0160208091040260200160405190810160405280929190818152602001828054610393906120d3565b80156103e05780601f106103b5576101008083540402835291602001916103e0565b820191906000526020600020905b8154815290600101906020018083116103c357829003601f168201915b5050505050905090565b60006103f582610966565b506103ff826109ee565b9050919050565b6104188282610413610a2b565b610a33565b5050565b600073ffffffffffffffffffffffffffffffffffffffff168273ffffffffffffffffffffffffffffffffffffffff160361048e5760006040517f64a0ae920000000000000000000000000000000000000000000000000000000081526004016104859190611d0f565b60405180910390fd5b60006104a2838361049d610a2b565b610a45565b90508373ffffffffffffffffffffffffffffffffffffffff168173ffffffffffffffffffffffffffffffffffffffff1614610518578382826040517f64283d7b00000000000000000000000000000000000000000000000000000000815260040161050f93929190612104565b60405180910390fd5b50505050565b610539838383604051806020016040528060008152506107b4565b505050565b600061054982610966565b9050919050565b610558610c5f565b60006008600081548092919061056d9061216a565b91905055905061057d3382610ce6565b610611816009805461058e906120d3565b80601f01602080910402602001604051908101604052809291908181526020018280546105ba906120d3565b80156106075780601f106105dc57610100808354040283529160200191610607565b820191906000526020600020905b8154815290600101906020018083116105ea57829003601f168201915b5050505050610d04565b50565b60008073ffffffffffffffffffffffffffffffffffffffff168273ffffffffffffffffffffffffffffffffffffffff16036106875760006040517f89c62b6400000000000000000000000000000000000000000000000000000000815260040161067e9190611d0f565b60405180910390fd5b600360008373ffffffffffffffffffffffffffffffffffffffff1673ffffffffffffffffffffffffffffffffffffffff168152602001908152602001600020549050919050565b6106d6610c5f565b6106e06000610d60565b565b6000600760009054906101000a900473ffffffffffffffffffffffffffffffffffffffff16905090565b60606001805461071b906120d3565b80601f0160208091040260200160405190810160405280929190818152602001828054610747906120d3565b80156107945780601f1061076957610100808354040283529160200191610794565b820191906000526020600020905b81548152906001019060200180831161077757829003601f168201915b5050505050905090565b6107b06107a9610a2b565b8383610e26565b5050565b6107bf84848461041c565b6107d36107ca610a2b565b85858585610f95565b50505050565b60606107e482611146565b9050919050565b6000600560008473ffffffffffffffffffffffffffffffffffffffff1673ffffffffffffffffffffffffffffffffffffffff16815260200190815260200160002060008373ffffffffffffffffffffffffffffffffffffffff1673ffffffffffffffffffffffffffffffffffffffff16815260200190815260200160002060009054906101000a900460ff16905092915050565b610887610c5f565b600073ffffffffffffffffffffffffffffffffffffffff168173ffffffffffffffffffffffffffffffffffffffff16036108f95760006040517f1e4fbdf70000000000000000000000000000000000000000000000000000000081526004016108f09190611d0f565b60405180910390fd5b61090281610d60565b50565b6000634906490660e01b7bffffffffffffffffffffffffffffffffffffffffffffffffffffffff1916827bffffffffffffffffffffffffffffffffffffffffffffffffffffffff1916148061095f575061095e82611259565b5b9050919050565b6000806109728361133b565b9050600073ffffffffffffffffffffffffffffffffffffffff168173ffffffffffffffffffffffffffffffffffffffff16036109e557826040517f7e2732890000000000000000000000000000000000000000000000000000000081526004016109dc9190611e25565b60405180910390fd5b80915050919050565b60006004600083815260200190815260200160002060009054906101000a900473ffffffffffffffffffffffffffffffffffffffff169050919050565b600033905090565b610a408383836001611378565b505050565b600080610a518461133b565b9050600073ffffffffffffffffffffffffffffffffffffffff168373ffffffffffffffffffffffffffffffffffffffff1614610a9357610a9281848661153d565b5b600073ffffffffffffffffffffffffffffffffffffffff168173ffffffffffffffffffffffffffffffffffffffff1614610b2457610ad5600085600080611378565b6001600360008373ffffffffffffffffffffffffffffffffffffffff1673ffffffffffffffffffffffffffffffffffffffff168152602001908152602001600020600082825403925050819055505b600073ffffffffffffffffffffffffffffffffffffffff168573ffffffffffffffffffffffffffffffffffffffff1614610ba7576001600360008773ffffffffffffffffffffffffffffffffffffffff1673ffffffffffffffffffffffffffffffffffffffff168152602001908152602001600020600082825401925050819055505b846002600086815260200190815260200160002060006101000a81548173ffffffffffffffffffffffffffffffffffffffff021916908373ffffffffffffffffffffffffffffffffffffffff160217905550838573ffffffffffffffffffffffffffffffffffffffff168273ffffffffffffffffffffffffffffffffffffffff167fddf252ad1be2c89b69c2b068fc378daa952ba7f163c4a11628f55a4df523b3ef60405160405180910390a4809150509392505050565b610c67610a2b565b73ffffffffffffffffffffffffffffffffffffffff16610c856106e2565b73ffffffffffffffffffffffffffffffffffffffff1614610ce457610ca8610a2b565b6040517f118cdaa7000000000000000000000000000000000000000000000000000000008152600401610cdb9190611d0f565b60405180910390fd5b565b610d00828260405180602001604052806000815250611601565b5050565b80600660008481526020019081526020016000209081610d24919061235e565b507ff8e1a15aba9398e019f0b49df1a4fde98ee17ae345cb5f6b5e2c27f5033e8ce782604051610d549190611e25565b60405180910390a15050565b6000600760009054906101000a900473ffffffffffffffffffffffffffffffffffffffff16905081600760006101000a81548173ffffffffffffffffffffffffffffffffffffffff021916908373ffffffffffffffffffffffffffffffffffffffff1602179055508173ffffffffffffffffffffffffffffffffffffffff168173ffffffffffffffffffffffffffffffffffffffff167f8be0079c531659141344cd1fd0a4f28419497f9722a3daafe3b4186f6b6457e060405160405180910390a35050565b600073ffffffffffffffffffffffffffffffffffffffff168273ffffffffffffffffffffffffffffffffffffffff1603610e9757816040517f5b08ba18000000000000000000000000000000000000000000000000000000008152600401610e8e9190611d0f565b60405180910390fd5b80600560008573ffffffffffffffffffffffffffffffffffffffff1673ffffffffffffffffffffffffffffffffffffffff16815260200190815260200160002060008473ffffffffffffffffffffffffffffffffffffffff1673ffffffffffffffffffffffffffffffffffffffff16815260200190815260200160002060006101000a81548160ff0219169083151502179055508173ffffffffffffffffffffffffffffffffffffffff168373ffffffffffffffffffffffffffffffffffffffff167f17307eab39ab6107e8899845ad3d59bd9653f200f220920489ca2b5937696c3183604051610f889190611b9e565b60405180910390a3505050565b60008373ffffffffffffffffffffffffffffffffffffffff163b111561113f578273ffffffffffffffffffffffffffffffffffffffff1663150b7a02868685856040518563ffffffff1660e01b8152600401610ff49493929190612485565b6020604051808303816000875af192505050801561103057506040513d601f19601f8201168201806040525081019061102d91906124e6565b60015b6110b4573d8060008114611060576040519150601f19603f3d011682016040523d82523d6000602084013e611065565b606091505b5060008151036110ac57836040517f64a0ae920000000000000000000000000000000000000000000000000000000081526004016110a39190611d0f565b60405180910390fd5b805181602001fd5b63150b7a0260e01b7bffffffffffffffffffffffffffffffffffffffffffffffffffffffff1916817bffffffffffffffffffffffffffffffffffffffffffffffffffffffff19161461113d57836040517f64a0ae920000000000000000000000000000000000000000000000000000000081526004016111349190611d0f565b60405180910390fd5b505b5050505050565b606061115182610966565b506000600660008481526020019081526020016000208054611172906120d3565b80601f016020809104026020016040519081016040528092919081815260200182805461119e906120d3565b80156111eb5780601f106111c0576101008083540402835291602001916111eb565b820191906000526020600020905b8154815290600101906020018083116111ce57829003601f168201915b5050505050905060006111fc611625565b90506000815103611211578192505050611254565b60008251111561124657808260405160200161122e92919061254f565b60405160208183030381529060405292505050611254565b61124f8461163c565b925050505b919050565b60007f80ac58cd000000000000000000000000000000000000000000000000000000007bffffffffffffffffffffffffffffffffffffffffffffffffffffffff1916827bffffffffffffffffffffffffffffffffffffffffffffffffffffffff1916148061132457507f5b5e139f000000000000000000000000000000000000000000000000000000007bffffffffffffffffffffffffffffffffffffffffffffffffffffffff1916827bffffffffffffffffffffffffffffffffffffffffffffffffffffffff1916145b806113345750611333826116a5565b5b9050919050565b60006002600083815260200190815260200160002060009054906101000a900473ffffffffffffffffffffffffffffffffffffffff169050919050565b80806113b15750600073ffffffffffffffffffffffffffffffffffffffff168273ffffffffffffffffffffffffffffffffffffffff1614155b156114e55760006113c184610966565b9050600073ffffffffffffffffffffffffffffffffffffffff168373ffffffffffffffffffffffffffffffffffffffff161415801561142c57508273ffffffffffffffffffffffffffffffffffffffff168173ffffffffffffffffffffffffffffffffffffffff1614155b801561143f575061143d81846107eb565b155b1561148157826040517fa9fbf51f0000000000000000000000000000000000000000000000000000000081526004016114789190611d0f565b60405180910390fd5b81156114e357838573ffffffffffffffffffffffffffffffffffffffff168273ffffffffffffffffffffffffffffffffffffffff167f8c5be1e5ebec7d5bd14f71427d1e84f3dd0314c0f7b2291e5b200ac8c7c3b92560405160405180910390a45b505b836004600085815260200190815260200160002060006101000a81548173ffffffffffffffffffffffffffffffffffffffff021916908373ffffffffffffffffffffffffffffffffffffffff16021790555050505050565b61154883838361170f565b6115fc57600073ffffffffffffffffffffffffffffffffffffffff168373ffffffffffffffffffffffffffffffffffffffff16036115bd57806040517f7e2732890000000000000000000000000000000000000000000000000000000081526004016115b49190611e25565b60405180910390fd5b81816040517f177e802f0000000000000000000000000000000000000000000000000000000081526004016115f3929190612573565b60405180910390fd5b505050565b61160b83836117d0565b611620611616610a2b565b6000858585610f95565b505050565b606060405180602001604052806000815250905090565b606061164782610966565b506000611652611625565b90506000815111611672576040518060200160405280600081525061169d565b8061167c846118c9565b60405160200161168d92919061254f565b6040516020818303038152906040525b915050919050565b60007f01ffc9a7000000000000000000000000000000000000000000000000000000007bffffffffffffffffffffffffffffffffffffffffffffffffffffffff1916827bffffffffffffffffffffffffffffffffffffffffffffffffffffffff1916149050919050565b60008073ffffffffffffffffffffffffffffffffffffffff168373ffffffffffffffffffffffffffffffffffffffff16141580156117c757508273ffffffffffffffffffffffffffffffffffffffff168473ffffffffffffffffffffffffffffffffffffffff161480611788575061178784846107eb565b5b806117c657508273ffffffffffffffffffffffffffffffffffffffff166117ae836109ee565b73ffffffffffffffffffffffffffffffffffffffff16145b5b90509392505050565b600073ffffffffffffffffffffffffffffffffffffffff168273ffffffffffffffffffffffffffffffffffffffff16036118425760006040517f64a0ae920000000000000000000000000000000000000000000000000000000081526004016118399190611d0f565b60405180910390fd5b600061185083836000610a45565b9050600073ffffffffffffffffffffffffffffffffffffffff168173ffffffffffffffffffffffffffffffffffffffff16146118c45760006040517f73c6ac6e0000000000000000000000000000000000000000000000000000000081526004016118bb9190611d0f565b60405180910390fd5b505050565b6060600060016118d884611997565b01905060008167ffffffffffffffff8111156118f7576118f6611eb6565b5b6040519080825280601f01601f1916602001820160405280156119295781602001600182028036833780820191505090505b509050600082602001820190505b60011561198c578080600190039150507f3031323334353637383961626364656600000000000000000000000000000000600a86061a8153600a85816119805761197f61259c565b5b04945060008503611937575b819350505050919050565b600080600090507a184f03e93ff9f4daa797ed6e38ed64bf6a1f01000000000000000083106119f5577a184f03e93ff9f4daa797ed6e38ed64bf6a1f01000000000000000083816119eb576119ea61259c565b5b0492506040810190505b6d04ee2d6d415b85acef81000000008310611a32576d04ee2d6d415b85acef81000000008381611a2857611a2761259c565b5b0492506020810190505b662386f26fc100008310611a6157662386f26fc100008381611a5757611a5661259c565b5b0492506010810190505b6305f5e1008310611a8a576305f5e1008381611a8057611a7f61259c565b5b0492506008810190505b6127108310611aaf576127108381611aa557611aa461259c565b5b0492506004810190505b60648310611ad25760648381611ac857611ac761259c565b5b0492506002810190505b600a8310611ae1576001810190505b80915050919050565b6000604051905090565b600080fd5b600080fd5b60007fffffffff0000000000000000000000000000000000000000000000000000000082169050919050565b611b3381611afe565b8114611b3e57600080fd5b50565b600081359050611b5081611b2a565b92915050565b600060208284031215611b6c57611b6b611af4565b5b6000611b7a84828501611b41565b91505092915050565b60008115159050919050565b611b9881611b83565b82525050565b6000602082019050611bb36000830184611b8f565b92915050565b600081519050919050565b600082825260208201905092915050565b60005b83811015611bf3578082015181840152602081019050611bd8565b60008484015250505050565b6000601f19601f8301169050919050565b6000611c1b82611bb9565b611c258185611bc4565b9350611c35818560208601611bd5565b611c3e81611bff565b840191505092915050565b60006020820190508181036000830152611c638184611c10565b905092915050565b6000819050919050565b611c7e81611c6b565b8114611c8957600080fd5b50565b600081359050611c9b81611c75565b92915050565b600060208284031215611cb757611cb6611af4565b5b6000611cc584828501611c8c565b91505092915050565b600073ffffffffffffffffffffffffffffffffffffffff82169050919050565b6000611cf982611cce565b9050919050565b611d0981611cee565b82525050565b6000602082019050611d246000830184611d00565b92915050565b611d3381611cee565b8114611d3e57600080fd5b50565b600081359050611d5081611d2a565b92915050565b60008060408385031215611d6d57611d6c611af4565b5b6000611d7b85828601611d41565b9250506020611d8c85828601611c8c565b9150509250929050565b600080600060608486031215611daf57611dae611af4565b5b6000611dbd86828701611d41565b9350506020611dce86828701611d41565b9250506040611ddf86828701611c8c565b9150509250925092565b600060208284031215611dff57611dfe611af4565b5b6000611e0d84828501611d41565b91505092915050565b611e1f81611c6b565b82525050565b6000602082019050611e3a6000830184611e16565b92915050565b611e4981611b83565b8114611e5457600080fd5b50565b600081359050611e6681611e40565b92915050565b60008060408385031215611e8357611e82611af4565b5b6000611e9185828601611d41565b9250506020611ea285828601611e57565b9150509250929050565b600080fd5b600080fd5b7f4e487b7100000000000000000000000000000000000000000000000000000000600052604160045260246000fd5b611eee82611bff565b810181811067ffffffffffffffff82111715611f0d57611f0c611eb6565b5b80604052505050565b6000611f20611aea565b9050611f2c8282611ee5565b919050565b600067ffffffffffffffff821115611f4c57611f4b611eb6565b5b611f5582611bff565b9050602081019050919050565b82818337600083830152505050565b6000611f84611f7f84611f31565b611f16565b905082815260208101848484011115611fa057611f9f611eb1565b5b611fab848285611f62565b509392505050565b600082601f830112611fc857611fc7611eac565b5b8135611fd8848260208601611f71565b91505092915050565b60008060008060808587031215611ffb57611ffa611af4565b5b600061200987828801611d41565b945050602061201a87828801611d41565b935050604061202b87828801611c8c565b925050606085013567ffffffffffffffff81111561204c5761204b611af9565b5b61205887828801611fb3565b91505092959194509250565b6000806040838503121561207b5761207a611af4565b5b600061208985828601611d41565b925050602061209a85828601611d41565b9150509250929050565b7f4e487b7100000000000000000000000000000000000000000000000000000000600052602260045260246000fd5b600060028204905060018216806120eb57607f821691505b6020821081036120fe576120fd6120a4565b5b50919050565b60006060820190506121196000830186611d00565b6121266020830185611e16565b6121336040830184611d00565b949350505050565b7f4e487b7100000000000000000000000000000000000000000000000000000000600052601160045260246000fd5b600061217582611c6b565b91507fffffffffffffffffffffffffffffffffffffffffffffffffffffffffffffffff82036121a7576121a661213b565b5b600182019050919050565b60008190508160005260206000209050919050565b60006020601f8301049050919050565b600082821b905092915050565b6000600883026122147fffffffffffffffffffffffffffffffffffffffffffffffffffffffffffffffff826121d7565b61221e86836121d7565b95508019841693508086168417925050509392505050565b6000819050919050565b600061225b61225661225184611c6b565b612236565b611c6b565b9050919050565b6000819050919050565b61227583612240565b61228961228182612262565b8484546121e4565b825550505050565b600090565b61229e612291565b6122a981848461226c565b505050565b5b818110156122cd576122c2600082612296565b6001810190506122af565b5050565b601f821115612312576122e3816121b2565b6122ec846121c7565b810160208510156122fb578190505b61230f612307856121c7565b8301826122ae565b50505b505050565b600082821c905092915050565b600061233560001984600802612317565b1980831691505092915050565b600061234e8383612324565b9150826002028217905092915050565b61236782611bb9565b67ffffffffffffffff8111156123805761237f611eb6565b5b61238a82546120d3565b6123958282856122d1565b600060209050601f8311600181146123c857600084156123b6578287015190505b6123c08582612342565b865550612428565b601f1984166123d6866121b2565b60005b828110156123fe578489015182556001820191506020850194506020810190506123d9565b8683101561241b5784890151612417601f891682612324565b8355505b6001600288020188555050505b505050505050565b600081519050919050565b600082825260208201905092915050565b600061245782612430565b612461818561243b565b9350612471818560208601611bd5565b61247a81611bff565b840191505092915050565b600060808201905061249a6000830187611d00565b6124a76020830186611d00565b6124b46040830185611e16565b81810360608301526124c6818461244c565b905095945050505050565b6000815190506124e081611b2a565b92915050565b6000602082840312156124fc576124fb611af4565b5b600061250a848285016124d1565b91505092915050565b600081905092915050565b600061252982611bb9565b6125338185612513565b9350612543818560208601611bd5565b80840191505092915050565b600061255b828561251e565b9150612567828461251e565b91508190509392505050565b60006040820190506125886000830185611d00565b6125956020830184611e16565b9392505050565b7f4e487b7100000000000000000000000000000000000000000000000000000000600052601260045260246000fdfea2646970667358221220595cde4547c302c8510e08b53f1bac8d766639ba452d744eb04faf572951ae7464736f6c634300081b0033697066733a2f2f516d61635a4e775a556e747a473862556a725253727a3854476b3139317071383862664853764e4e793733797473",
  "linkReferences": {},
  "deployedLinkReferences": {}
}