{
  "_format": "hh-sol-artifact-1",
  "contractName": "Crowdfunding",
  "sourceName": "contracts/SimpleContract.sol",
  "abi": [
    {
      "inputs": [
        {
          "internalType": "address",
          "name": "_nftContractAddress",
          "type": "address"
        }
      ],
      "stateMutability": "nonpayable",
      "type": "constructor"
    },
    {
      "inputs": [],
      "name": "claimRewards",
      "outputs": [],
      "stateMutability": "nonpayable",
      "type": "function"
    },
    {
      "inputs": [
        {
          "internalType": "uint256",
          "name": "_amount",
          "type": "uint256"
        }
      ],
      "name": "invest",
      "outputs": [],
      "stateMutability": "payable",
      "type": "function"
    },
    {
      "inputs": [
        {
          "internalType": "address",
          "name": "",
          "type": "address"
        }
      ],
      "name": "investors",
      "outputs": [
        {
          "internalType": "address",
          "name": "investorAddress",
          "type": "address"
        },
        {
          "internalType": "uint256",
          "name": "amountInvested",
          "type": "uint256"
        },
        {
          "internalType": "bool",
          "name": "isType2",
          "type": "bool"
        }
      ],
      "stateMutability": "view",
      "type": "function"
    },
    {
      "inputs": [],
      "name": "nftContract",
      "outputs": [
        {
          "internalType": "contract WiseGuard",
          "name": "",
          "type": "address"
        }
      ],
      "stateMutability": "view",
      "type": "function"
    }
  ],
  "bytecode": "0x608060405234801561001057600080fd5b5060405161090f38038061090f833981810160405281019061003291906100db565b806000806101000a81548173ffffffffffffffffffffffffffffffffffffffff021916908373ffffffffffffffffffffffffffffffffffffffff16021790555050610108565b600080fd5b600073ffffffffffffffffffffffffffffffffffffffff82169050919050565b60006100a88261007d565b9050919050565b6100b88161009d565b81146100c357600080fd5b50565b6000815190506100d5816100af565b92915050565b6000602082840312156100f1576100f0610078565b5b60006100ff848285016100c6565b91505092915050565b6107f8806101176000396000f3fe60806040526004361061003f5760003560e01c80632afcf48014610044578063372500ab146100605780636f7bc9be14610077578063d56d229d146100b6575b600080fd5b61005e60048036038101906100599190610493565b6100e1565b005b34801561006c57600080fd5b5061007561025c565b005b34801561008357600080fd5b5061009e6004803603810190610099919061051e565b6103dd565b6040516100ad93929190610584565b60405180910390f35b3480156100c257600080fd5b506100cb610434565b6040516100d8919061061a565b60405180910390f35b803414610123576040517f08c379a000000000000000000000000000000000000000000000000000000000815260040161011a90610692565b60405180910390fd5b600160003373ffffffffffffffffffffffffffffffffffffffff1673ffffffffffffffffffffffffffffffffffffffff16815260200190815260200160002060020160009054906101000a900460ff1680156101d3575066038d7ea4c6800081600160003373ffffffffffffffffffffffffffffffffffffffff1673ffffffffffffffffffffffffffffffffffffffff168152602001908152602001600020600101546101d091906106e1565b10155b156102595760008054906101000a900473ffffffffffffffffffffffffffffffffffffffff1673ffffffffffffffffffffffffffffffffffffffff16636871ee406040518163ffffffff1660e01b8152600401600060405180830381600087803b15801561024057600080fd5b505af1158015610254573d6000803e3d6000fd5b505050505b50565b600160003373ffffffffffffffffffffffffffffffffffffffff1673ffffffffffffffffffffffffffffffffffffffff16815260200190815260200160002060020160009054906101000a900460ff16156103db5760008054906101000a900473ffffffffffffffffffffffffffffffffffffffff1673ffffffffffffffffffffffffffffffffffffffff166342842e0e3033600160008054906101000a900473ffffffffffffffffffffffffffffffffffffffff1673ffffffffffffffffffffffffffffffffffffffff1663caa0f92a6040518163ffffffff1660e01b8152600401602060405180830381865afa15801561035c573d6000803e3d6000fd5b505050506040513d601f19601f82011682018060405250810190610380919061072a565b61038a9190610757565b6040518463ffffffff1660e01b81526004016103a89392919061078b565b600060405180830381600087803b1580156103c257600080fd5b505af11580156103d6573d6000803e3d6000fd5b505050505b565b60016020528060005260406000206000915090508060000160009054906101000a900473ffffffffffffffffffffffffffffffffffffffff16908060010154908060020160009054906101000a900460ff16905083565b60008054906101000a900473ffffffffffffffffffffffffffffffffffffffff1681565b600080fd5b6000819050919050565b6104708161045d565b811461047b57600080fd5b50565b60008135905061048d81610467565b92915050565b6000602082840312156104a9576104a8610458565b5b60006104b78482850161047e565b91505092915050565b600073ffffffffffffffffffffffffffffffffffffffff82169050919050565b60006104eb826104c0565b9050919050565b6104fb816104e0565b811461050657600080fd5b50565b600081359050610518816104f2565b92915050565b60006020828403121561053457610533610458565b5b600061054284828501610509565b91505092915050565b610554816104e0565b82525050565b6105638161045d565b82525050565b60008115159050919050565b61057e81610569565b82525050565b6000606082019050610599600083018661054b565b6105a6602083018561055a565b6105b36040830184610575565b949350505050565b6000819050919050565b60006105e06105db6105d6846104c0565b6105bb565b6104c0565b9050919050565b60006105f2826105c5565b9050919050565b6000610604826105e7565b9050919050565b610614816105f9565b82525050565b600060208201905061062f600083018461060b565b92915050565b600082825260208201905092915050565b7f496e636f727265637420616d6f756e742073656e740000000000000000000000600082015250565b600061067c601583610635565b915061068782610646565b602082019050919050565b600060208201905081810360008301526106ab8161066f565b9050919050565b7f4e487b7100000000000000000000000000000000000000000000000000000000600052601160045260246000fd5b60006106ec8261045d565b91506106f78361045d565b925082820190508082111561070f5761070e6106b2565b5b92915050565b60008151905061072481610467565b92915050565b6000602082840312156107405761073f610458565b5b600061074e84828501610715565b91505092915050565b60006107628261045d565b915061076d8361045d565b9250828203905081811115610785576107846106b2565b5b92915050565b60006060820190506107a0600083018661054b565b6107ad602083018561054b565b6107ba604083018461055a565b94935050505056fea26469706673582212204acda4088d1dee92de4efba95a85d720475a90ec4210fb9ed7ac634ca010a3da64736f6c634300081b0033",
  "linkReferences": {},
  "deployedLinkReferences": {}
}